{
  "_format": "hh-sol-artifact-1",
  "contractName": "MetabetMaskPool",
  "sourceName": "contracts/MetabetMaskPool.sol",
  "abi": [
    {
      "anonymous": false,
      "inputs": [
        {
          "indexed": false,
          "internalType": "address",
          "name": "previousAdmin",
          "type": "address"
        },
        {
          "indexed": false,
          "internalType": "address",
          "name": "newAdmin",
          "type": "address"
        }
      ],
      "name": "AdminChanged",
      "type": "event"
    },
    {
      "anonymous": false,
      "inputs": [
        {
          "indexed": true,
          "internalType": "address",
          "name": "beacon",
          "type": "address"
        }
      ],
      "name": "BeaconUpgraded",
      "type": "event"
    },
    {
      "anonymous": false,
      "inputs": [
        {
          "indexed": true,
          "internalType": "bytes32",
          "name": "_eventId",
          "type": "bytes32"
        },
        {
          "indexed": true,
          "internalType": "address",
          "name": "_player",
          "type": "address"
        },
        {
          "indexed": false,
          "internalType": "int8",
          "name": "result",
          "type": "int8"
        },
        {
          "indexed": false,
          "internalType": "uint256",
          "name": "_amount",
          "type": "uint256"
        }
      ],
      "name": "BetPlaced",
      "type": "event"
    },
    {
      "anonymous": false,
      "inputs": [
        {
          "indexed": true,
          "internalType": "address",
          "name": "user",
          "type": "address"
        },
        {
          "indexed": true,
          "internalType": "bytes32",
          "name": "eventId",
          "type": "bytes32"
        },
        {
          "indexed": false,
          "internalType": "uint256",
          "name": "reward",
          "type": "uint256"
        }
      ],
      "name": "Claim",
      "type": "event"
    },
    {
      "anonymous": false,
      "inputs": [
        {
          "indexed": false,
          "internalType": "uint8",
          "name": "version",
          "type": "uint8"
        }
      ],
      "name": "Initialized",
      "type": "event"
    },
    {
      "anonymous": false,
      "inputs": [
        {
          "indexed": false,
          "internalType": "address",
          "name": "_address",
          "type": "address"
        }
      ],
      "name": "OracleAddressSet",
      "type": "event"
    },
    {
      "anonymous": false,
      "inputs": [
        {
          "indexed": true,
          "internalType": "address",
          "name": "previousOwner",
          "type": "address"
        },
        {
          "indexed": true,
          "internalType": "address",
          "name": "newOwner",
          "type": "address"
        }
      ],
      "name": "OwnershipTransferred",
      "type": "event"
    },
    {
      "anonymous": false,
      "inputs": [
        {
          "indexed": false,
          "internalType": "string",
          "name": "tokenName",
          "type": "string"
        },
        {
          "indexed": true,
          "internalType": "address",
          "name": "token",
          "type": "address"
        }
      ],
      "name": "TokenAdded",
      "type": "event"
    },
    {
      "anonymous": false,
      "inputs": [
        {
          "indexed": false,
          "internalType": "uint256",
          "name": "newFee",
          "type": "uint256"
        }
      ],
      "name": "TokenFeeUpdated",
      "type": "event"
    },
    {
      "anonymous": false,
      "inputs": [
        {
          "indexed": true,
          "internalType": "address",
          "name": "token",
          "type": "address"
        }
      ],
      "name": "TokenRemoved",
      "type": "event"
    },
    {
      "anonymous": false,
      "inputs": [
        {
          "indexed": true,
          "internalType": "address",
          "name": "implementation",
          "type": "address"
        }
      ],
      "name": "Upgraded",
      "type": "event"
    },
    {
      "inputs": [
        {
          "internalType": "string",
          "name": "_tokenName",
          "type": "string"
        },
        {
          "internalType": "address",
          "name": "_token",
          "type": "address"
        }
      ],
      "name": "addToken",
      "outputs": [],
      "stateMutability": "nonpayable",
      "type": "function"
    },
    {
      "inputs": [
        {
          "internalType": "bytes32",
          "name": "_eventId",
          "type": "bytes32"
        },
        {
          "internalType": "string",
          "name": "_token",
          "type": "string"
        },
        {
          "internalType": "uint256",
          "name": "_amount",
          "type": "uint256"
        },
        {
          "internalType": "int8",
          "name": "_predictResult",
          "type": "int8"
        }
      ],
      "name": "bet",
      "outputs": [],
      "stateMutability": "nonpayable",
      "type": "function"
    },
    {
      "inputs": [
        {
          "internalType": "bytes32",
          "name": "_eventId",
          "type": "bytes32"
        },
        {
          "internalType": "uint256",
          "name": "_amount",
          "type": "uint256"
        },
        {
          "internalType": "int8",
          "name": "_predictResult",
          "type": "int8"
        }
      ],
      "name": "betBNB",
      "outputs": [],
      "stateMutability": "payable",
      "type": "function"
    },
    {
      "inputs": [
        {
          "internalType": "bytes32[]",
          "name": "_eventIds",
          "type": "bytes32[]"
        },
        {
          "internalType": "address",
          "name": "_token",
          "type": "address"
        }
      ],
      "name": "claim",
      "outputs": [],
      "stateMutability": "nonpayable",
      "type": "function"
    },
    {
      "inputs": [
        {
          "internalType": "bytes32",
          "name": "",
          "type": "bytes32"
        },
        {
          "internalType": "address",
          "name": "",
          "type": "address"
        }
      ],
      "name": "eventToPoolSize",
      "outputs": [
        {
          "internalType": "uint256",
          "name": "",
          "type": "uint256"
        }
      ],
      "stateMutability": "view",
      "type": "function"
    },
    {
      "inputs": [
        {
          "internalType": "bytes32",
          "name": "",
          "type": "bytes32"
        },
        {
          "internalType": "address",
          "name": "",
          "type": "address"
        }
      ],
      "name": "eventToPoolTotal",
      "outputs": [
        {
          "internalType": "uint256",
          "name": "",
          "type": "uint256"
        }
      ],
      "stateMutability": "view",
      "type": "function"
    },
    {
      "inputs": [
        {
          "internalType": "bytes32",
          "name": "",
          "type": "bytes32"
        },
        {
          "internalType": "address",
          "name": "",
          "type": "address"
        },
        {
          "internalType": "int8",
          "name": "",
          "type": "int8"
        }
      ],
      "name": "eventToPoolTotalTeam",
      "outputs": [
        {
          "internalType": "uint256",
          "name": "",
          "type": "uint256"
        }
      ],
      "stateMutability": "view",
      "type": "function"
    },
    {
      "inputs": [
        {
          "internalType": "bytes32",
          "name": "",
          "type": "bytes32"
        },
        {
          "internalType": "address",
          "name": "",
          "type": "address"
        }
      ],
      "name": "eventToUserBet",
      "outputs": [
        {
          "internalType": "address",
          "name": "user",
          "type": "address"
        },
        {
          "internalType": "address",
          "name": "token",
          "type": "address"
        },
        {
          "internalType": "bytes32",
          "name": "eventId",
          "type": "bytes32"
        },
        {
          "internalType": "uint256",
          "name": "amount",
          "type": "uint256"
        },
        {
          "internalType": "uint256",
          "name": "timestamp",
          "type": "uint256"
        },
        {
          "internalType": "int8",
          "name": "result",
          "type": "int8"
        },
        {
          "internalType": "bool",
          "name": "claimed",
          "type": "bool"
        }
      ],
      "stateMutability": "view",
      "type": "function"
    },
    {
      "inputs": [
        {
          "internalType": "bytes32",
          "name": "",
          "type": "bytes32"
        },
        {
          "internalType": "uint256",
          "name": "",
          "type": "uint256"
        }
      ],
      "name": "eventToUsers",
      "outputs": [
        {
          "internalType": "address",
          "name": "",
          "type": "address"
        }
      ],
      "stateMutability": "view",
      "type": "function"
    },
    {
      "inputs": [
        {
          "internalType": "address",
          "name": "_user",
          "type": "address"
        }
      ],
      "name": "getAllUserActiveBets",
      "outputs": [
        {
          "components": [
            {
              "internalType": "address",
              "name": "user",
              "type": "address"
            },
            {
              "internalType": "address",
              "name": "token",
              "type": "address"
            },
            {
              "internalType": "bytes32",
              "name": "eventId",
              "type": "bytes32"
            },
            {
              "internalType": "uint256",
              "name": "amount",
              "type": "uint256"
            },
            {
              "internalType": "uint256",
              "name": "timestamp",
              "type": "uint256"
            },
            {
              "internalType": "int8",
              "name": "result",
              "type": "int8"
            },
            {
              "internalType": "bool",
              "name": "claimed",
              "type": "bool"
            }
          ],
          "internalType": "struct MetabetMaskPool.Bet[]",
          "name": "",
          "type": "tuple[]"
        }
      ],
      "stateMutability": "view",
      "type": "function"
    },
    {
      "inputs": [
        {
          "internalType": "address",
          "name": "_user",
          "type": "address"
        }
      ],
      "name": "getAllUserBets",
      "outputs": [
        {
          "components": [
            {
              "internalType": "address",
              "name": "user",
              "type": "address"
            },
            {
              "internalType": "address",
              "name": "token",
              "type": "address"
            },
            {
              "internalType": "bytes32",
              "name": "eventId",
              "type": "bytes32"
            },
            {
              "internalType": "uint256",
              "name": "amount",
              "type": "uint256"
            },
            {
              "internalType": "uint256",
              "name": "timestamp",
              "type": "uint256"
            },
            {
              "internalType": "int8",
              "name": "result",
              "type": "int8"
            },
            {
              "internalType": "bool",
              "name": "claimed",
              "type": "bool"
            }
          ],
          "internalType": "struct MetabetMaskPool.Bet[]",
          "name": "",
          "type": "tuple[]"
        }
      ],
      "stateMutability": "view",
      "type": "function"
    },
    {
      "inputs": [
        {
          "internalType": "bytes32",
          "name": "_eventId",
          "type": "bytes32"
        }
      ],
      "name": "getBets",
      "outputs": [
        {
          "components": [
            {
              "internalType": "address",
              "name": "user",
              "type": "address"
            },
            {
              "internalType": "address",
              "name": "token",
              "type": "address"
            },
            {
              "internalType": "bytes32",
              "name": "eventId",
              "type": "bytes32"
            },
            {
              "internalType": "uint256",
              "name": "amount",
              "type": "uint256"
            },
            {
              "internalType": "uint256",
              "name": "timestamp",
              "type": "uint256"
            },
            {
              "internalType": "int8",
              "name": "result",
              "type": "int8"
            },
            {
              "internalType": "bool",
              "name": "claimed",
              "type": "bool"
            }
          ],
          "internalType": "struct MetabetMaskPool.Bet[]",
          "name": "",
          "type": "tuple[]"
        }
      ],
      "stateMutability": "view",
      "type": "function"
    },
    {
      "inputs": [
        {
          "internalType": "bytes32[]",
          "name": "_eventIds",
          "type": "bytes32[]"
        }
      ],
      "name": "getEvents",
      "outputs": [
        {
          "components": [
            {
              "internalType": "bytes32",
              "name": "id",
              "type": "bytes32"
            },
            {
              "internalType": "string",
              "name": "teamA",
              "type": "string"
            },
            {
              "internalType": "string",
              "name": "teamB",
              "type": "string"
            },
            {
              "internalType": "int8",
              "name": "result",
              "type": "int8"
            },
            {
              "internalType": "uint256",
              "name": "startTimestamp",
              "type": "uint256"
            },
            {
              "internalType": "address",
              "name": "pool",
              "type": "address"
            },
            {
              "internalType": "enum IMetabetMask.EventOutcome",
              "name": "outcome",
              "type": "uint8"
            }
          ],
          "internalType": "struct IMetabetMask.SportEvent[]",
          "name": "",
          "type": "tuple[]"
        }
      ],
      "stateMutability": "view",
      "type": "function"
    },
    {
      "inputs": [],
      "name": "getEventsLength",
      "outputs": [
        {
          "internalType": "uint256",
          "name": "",
          "type": "uint256"
        }
      ],
      "stateMutability": "view",
      "type": "function"
    },
    {
      "inputs": [
        {
          "internalType": "uint256[]",
          "name": "indexes",
          "type": "uint256[]"
        }
      ],
      "name": "getIndexedEvents",
      "outputs": [
        {
          "components": [
            {
              "internalType": "bytes32",
              "name": "id",
              "type": "bytes32"
            },
            {
              "internalType": "string",
              "name": "teamA",
              "type": "string"
            },
            {
              "internalType": "string",
              "name": "teamB",
              "type": "string"
            },
            {
              "internalType": "int8",
              "name": "result",
              "type": "int8"
            },
            {
              "internalType": "uint256",
              "name": "startTimestamp",
              "type": "uint256"
            },
            {
              "internalType": "address",
              "name": "pool",
              "type": "address"
            },
            {
              "internalType": "enum IMetabetMask.EventOutcome",
              "name": "outcome",
              "type": "uint8"
            }
          ],
          "internalType": "struct IMetabetMask.SportEvent[]",
          "name": "",
          "type": "tuple[]"
        }
      ],
      "stateMutability": "view",
      "type": "function"
    },
    {
      "inputs": [],
      "name": "getLiveEvents",
      "outputs": [
        {
          "components": [
            {
              "internalType": "bytes32",
              "name": "id",
              "type": "bytes32"
            },
            {
              "internalType": "string",
              "name": "teamA",
              "type": "string"
            },
            {
              "internalType": "string",
              "name": "teamB",
              "type": "string"
            },
            {
              "internalType": "int8",
              "name": "result",
              "type": "int8"
            },
            {
              "internalType": "uint256",
              "name": "startTimestamp",
              "type": "uint256"
            },
            {
              "internalType": "address",
              "name": "pool",
              "type": "address"
            },
            {
              "internalType": "enum IMetabetMask.EventOutcome",
              "name": "outcome",
              "type": "uint8"
            }
          ],
          "internalType": "struct IMetabetMask.SportEvent[]",
          "name": "",
          "type": "tuple[]"
        }
      ],
      "stateMutability": "view",
      "type": "function"
    },
    {
      "inputs": [
        {
          "internalType": "int8",
          "name": "_team",
          "type": "int8"
        },
        {
          "internalType": "address",
          "name": "_token",
          "type": "address"
        },
        {
          "internalType": "bytes32",
          "name": "_eventId",
          "type": "bytes32"
        }
      ],
      "name": "getOdds",
      "outputs": [
        {
          "internalType": "uint256",
          "name": "",
          "type": "uint256"
        }
      ],
      "stateMutability": "view",
      "type": "function"
    },
    {
      "inputs": [
        {
          "internalType": "address",
          "name": "_user",
          "type": "address"
        },
        {
          "internalType": "address",
          "name": "_token",
          "type": "address"
        },
        {
          "internalType": "bytes32",
          "name": "_eventId",
          "type": "bytes32"
        }
      ],
      "name": "getPayout",
      "outputs": [
        {
          "internalType": "uint256",
          "name": "",
          "type": "uint256"
        }
      ],
      "stateMutability": "view",
      "type": "function"
    },
    {
      "inputs": [
        {
          "internalType": "address",
          "name": "_token",
          "type": "address"
        },
        {
          "internalType": "bytes32",
          "name": "_eventId",
          "type": "bytes32"
        }
      ],
      "name": "getPoolSize",
      "outputs": [
        {
          "internalType": "uint256",
          "name": "",
          "type": "uint256"
        }
      ],
      "stateMutability": "view",
      "type": "function"
    },
    {
      "inputs": [
        {
          "internalType": "address",
          "name": "_token",
          "type": "address"
        },
        {
          "internalType": "bytes32",
          "name": "_eventId",
          "type": "bytes32"
        }
      ],
      "name": "getPoolTotal",
      "outputs": [
        {
          "internalType": "uint256",
          "name": "",
          "type": "uint256"
        }
      ],
      "stateMutability": "view",
      "type": "function"
    },
    {
      "inputs": [
        {
          "internalType": "int8",
          "name": "_team",
          "type": "int8"
        },
        {
          "internalType": "address",
          "name": "_token",
          "type": "address"
        },
        {
          "internalType": "bytes32",
          "name": "_eventId",
          "type": "bytes32"
        }
      ],
      "name": "getPoolTotalTeam",
      "outputs": [
        {
          "internalType": "uint256",
          "name": "",
          "type": "uint256"
        }
      ],
      "stateMutability": "view",
      "type": "function"
    },
    {
      "inputs": [],
      "name": "getPredictableEvents",
      "outputs": [
        {
          "components": [
            {
              "internalType": "bytes32",
              "name": "id",
              "type": "bytes32"
            },
            {
              "internalType": "string",
              "name": "teamA",
              "type": "string"
            },
            {
              "internalType": "string",
              "name": "teamB",
              "type": "string"
            },
            {
              "internalType": "int8",
              "name": "result",
              "type": "int8"
            },
            {
              "internalType": "uint256",
              "name": "startTimestamp",
              "type": "uint256"
            },
            {
              "internalType": "address",
              "name": "pool",
              "type": "address"
            },
            {
              "internalType": "enum IMetabetMask.EventOutcome",
              "name": "outcome",
              "type": "uint8"
            }
          ],
          "internalType": "struct IMetabetMask.SportEvent[]",
          "name": "",
          "type": "tuple[]"
        }
      ],
      "stateMutability": "view",
      "type": "function"
    },
    {
      "inputs": [
        {
          "internalType": "uint256",
          "name": "cursor",
          "type": "uint256"
        },
        {
          "internalType": "uint256",
          "name": "length",
          "type": "uint256"
        }
      ],
      "name": "getTokens",
      "outputs": [
        {
          "internalType": "string[]",
          "name": "",
          "type": "string[]"
        }
      ],
      "stateMutability": "view",
      "type": "function"
    },
    {
      "inputs": [],
      "name": "getTokensLength",
      "outputs": [
        {
          "internalType": "uint256",
          "name": "",
          "type": "uint256"
        }
      ],
      "stateMutability": "view",
      "type": "function"
    },
    {
      "inputs": [
        {
          "internalType": "address",
          "name": "_user",
          "type": "address"
        },
        {
          "internalType": "address",
          "name": "_token",
          "type": "address"
        }
      ],
      "name": "getTotalReturned",
      "outputs": [
        {
          "internalType": "uint256",
          "name": "",
          "type": "uint256"
        }
      ],
      "stateMutability": "view",
      "type": "function"
    },
    {
      "inputs": [
        {
          "internalType": "address",
          "name": "_oracleAddress",
          "type": "address"
        },
        {
          "internalType": "address",
          "name": "_treasury",
          "type": "address"
        }
      ],
      "name": "initialize",
      "outputs": [],
      "stateMutability": "nonpayable",
      "type": "function"
    },
    {
      "inputs": [],
      "name": "owner",
      "outputs": [
        {
          "internalType": "address",
          "name": "",
          "type": "address"
        }
      ],
      "stateMutability": "view",
      "type": "function"
    },
    {
      "inputs": [],
      "name": "proxiableUUID",
      "outputs": [
        {
          "internalType": "bytes32",
          "name": "",
          "type": "bytes32"
        }
      ],
      "stateMutability": "view",
      "type": "function"
    },
    {
      "inputs": [
        {
          "internalType": "string",
          "name": "_tokenName",
          "type": "string"
        }
      ],
      "name": "removeToken",
      "outputs": [],
      "stateMutability": "nonpayable",
      "type": "function"
    },
    {
      "inputs": [],
      "name": "renounceOwnership",
      "outputs": [],
      "stateMutability": "nonpayable",
      "type": "function"
    },
    {
      "inputs": [
        {
          "internalType": "address",
          "name": "_oracleAddress",
          "type": "address"
        }
      ],
      "name": "setOracleAddress",
      "outputs": [],
      "stateMutability": "nonpayable",
      "type": "function"
    },
    {
      "inputs": [],
      "name": "sportOracle",
      "outputs": [
        {
          "internalType": "contract IMetabetMask",
          "name": "",
          "type": "address"
        }
      ],
      "stateMutability": "view",
      "type": "function"
    },
    {
      "inputs": [
        {
          "internalType": "address",
          "name": "",
          "type": "address"
        }
      ],
      "name": "tokenAdded",
      "outputs": [
        {
          "internalType": "bool",
          "name": "",
          "type": "bool"
        }
      ],
      "stateMutability": "view",
      "type": "function"
    },
    {
      "inputs": [
        {
          "internalType": "address",
          "name": "",
          "type": "address"
        }
      ],
      "name": "tokenFees",
      "outputs": [
        {
          "internalType": "uint256",
          "name": "",
          "type": "uint256"
        }
      ],
      "stateMutability": "view",
      "type": "function"
    },
    {
      "inputs": [
        {
          "internalType": "string",
          "name": "",
          "type": "string"
        }
      ],
      "name": "tokenNameToAddress",
      "outputs": [
        {
          "internalType": "address",
          "name": "",
          "type": "address"
        }
      ],
      "stateMutability": "view",
      "type": "function"
    },
    {
      "inputs": [
        {
          "internalType": "uint256",
          "name": "",
          "type": "uint256"
        }
      ],
      "name": "tokens",
      "outputs": [
        {
          "internalType": "string",
          "name": "",
          "type": "string"
        }
      ],
      "stateMutability": "view",
      "type": "function"
    },
    {
      "inputs": [
        {
          "internalType": "address",
          "name": "",
          "type": "address"
        },
        {
          "internalType": "address",
          "name": "",
          "type": "address"
        }
      ],
      "name": "totalReturned",
      "outputs": [
        {
          "internalType": "uint256",
          "name": "",
          "type": "uint256"
        }
      ],
      "stateMutability": "view",
      "type": "function"
    },
    {
      "inputs": [
        {
          "internalType": "address",
          "name": "newOwner",
          "type": "address"
        }
      ],
      "name": "transferOwnership",
      "outputs": [],
      "stateMutability": "nonpayable",
      "type": "function"
    },
    {
      "inputs": [],
      "name": "treasury",
      "outputs": [
        {
          "internalType": "contract ITreasury",
          "name": "",
          "type": "address"
        }
      ],
      "stateMutability": "view",
      "type": "function"
    },
    {
      "inputs": [
        {
          "internalType": "uint256",
          "name": "_fee",
          "type": "uint256"
        },
        {
          "internalType": "address",
          "name": "_token",
          "type": "address"
        }
      ],
      "name": "updateTokenFee",
      "outputs": [],
      "stateMutability": "nonpayable",
      "type": "function"
    },
    {
      "inputs": [
        {
          "internalType": "address",
          "name": "newImplementation",
          "type": "address"
        }
      ],
      "name": "upgradeTo",
      "outputs": [],
      "stateMutability": "nonpayable",
      "type": "function"
    },
    {
      "inputs": [
        {
          "internalType": "address",
          "name": "newImplementation",
          "type": "address"
        },
        {
          "internalType": "bytes",
          "name": "data",
          "type": "bytes"
        }
      ],
      "name": "upgradeToAndCall",
      "outputs": [],
      "stateMutability": "payable",
      "type": "function"
    },
    {
      "inputs": [
        {
          "internalType": "address",
          "name": "_user",
          "type": "address"
        },
        {
          "internalType": "bytes32[]",
          "name": "_eventIds",
          "type": "bytes32[]"
        }
      ],
      "name": "userPredictStatus",
      "outputs": [
        {
          "internalType": "bool[]",
          "name": "",
          "type": "bool[]"
        }
      ],
      "stateMutability": "view",
      "type": "function"
    },
    {
      "inputs": [
        {
          "internalType": "address",
          "name": "",
          "type": "address"
        },
        {
          "internalType": "uint256",
          "name": "",
          "type": "uint256"
        }
      ],
      "name": "userToEvents",
      "outputs": [
        {
          "internalType": "bytes32",
          "name": "",
          "type": "bytes32"
        }
      ],
      "stateMutability": "view",
      "type": "function"
    },
    {
      "stateMutability": "payable",
      "type": "receive"
    }
  ],
  "bytecode": "0x60a06040523060601b60805234801561001757600080fd5b5060805160601c614717610052600039600081816110540152818161109401528181611f6a01528181611faa01526120e901526147176000f3fe60806040526004361061026b5760003560e01c80636726f39a11610144578063b0b22c2c116100b6578063bfd1274f1161007a578063bfd1274f14610882578063c784685c146108bb578063dc755091146108fe578063f2fde38b1461091e578063f9a3a86d1461093e578063fbff64d01461098557600080fd5b8063b0b22c2c146107d9578063b0c26ecf146107f9578063b76973601461080e578063ba2abf261461084d578063bb6515e41461086d57600080fd5b80638d6d032f116101085780638d6d032f1461070d5780638da5cb5b1461072257806394fd2e5b14610740578063954ed8ea14610760578063965a2786146107995780639eab46a8146107b957600080fd5b80636726f39a146106645780636d9a2acb146106845780636dfeb12f14610697578063715018a6146106d857806388b4f2d3146106ed57600080fd5b806340b53573116101dd5780634c69c00f116101a15780634c69c00f146105975780634f1ef286146105b75780634f64b2be146105ca57806352d1902d146105f75780635cbe247d1461060c57806361d027b31461064457600080fd5b806340b53573146104f557806347fc216e14610515578063485cc9551461052a578063494cfc6c1461054a5780634b97ca5b1461057757600080fd5b806333290e4f1161022f57806333290e4f146103d35780633659cfe61461040057806336aba746146104205780633760fe8f1461047a57806339e16d64146104a75780633f8bafd3146104d557600080fd5b806304684b111461027757806314e5e2ba146102aa5780631d579ebc146102d75780631f455922146103915780632be1461e146103b357600080fd5b3661027257005b600080fd5b34801561028357600080fd5b50610297610292366004613b72565b6109c7565b6040519081526020015b60405180910390f35b3480156102b657600080fd5b506102ca6102c5366004613a91565b6109f9565b6040516102a19190614215565b3480156102e357600080fd5b5061034c6102f2366004613e9a565b60fe6020908152600092835260408084209091529082528120805460018201546002830154600384015460048501546005909501546001600160a01b039485169693909416949193909281900b9060ff6101009091041687565b604080516001600160a01b039889168152979096166020880152948601939093526060850191909152608084015260000b60a0830152151560c082015260e0016102a1565b34801561039d57600080fd5b506103b16103ac366004613fcc565b610bf9565b005b3480156103bf57600080fd5b506102ca6103ce366004613e6a565b610e39565b3480156103df57600080fd5b506103f36103ee366004613db8565b610fbe565b6040516102a191906142a7565b34801561040c57600080fd5b506103b161041b366004613a91565b611049565b34801561042c57600080fd5b5061046261043b366004613fcc565b8051602081830181018051610105825292820191909301209152546001600160a01b031681565b6040516001600160a01b0390911681526020016102a1565b34801561048657600080fd5b5061049a610495366004613b25565b611129565b6040516102a19190614136565b3480156104b357600080fd5b506102976104c2366004613a91565b6101046020526000908152604090205481565b3480156104e157600080fd5b506104626104f0366004613f5f565b611550565b34801561050157600080fd5b506103b1610510366004613eff565b611589565b34801561052157600080fd5b50610297611b52565b34801561053657600080fd5b506103b1610545366004613aad565b611bd4565b34801561055657600080fd5b5061056a610565366004613f5f565b611d17565b6040516102a191906141b4565b34801561058357600080fd5b50610297610592366004613fad565b611e72565b3480156105a357600080fd5b506103b16105b2366004613a91565b611eaa565b6103b16105c5366004613b9d565b611f5f565b3480156105d657600080fd5b506105ea6105e5366004613e6a565b612030565b6040516102a19190614376565b34801561060357600080fd5b506102976120dc565b34801561061857600080fd5b50610297610627366004613e9a565b60ff60209081526000928352604080842090915290825290205481565b34801561065057600080fd5b5060fc54610462906001600160a01b031681565b34801561067057600080fd5b5061029761067f366004613ae5565b61218f565b6103b1610692366004613f80565b612254565b3480156106a357600080fd5b506106c86106b2366004613a91565b6101066020526000908152604090205460ff1681565b60405190151581526020016102a1565b3480156106e457600080fd5b506103b16126e3565b3480156106f957600080fd5b506103b1610708366004613c25565b6126f7565b34801561071957600080fd5b506103f3612d1b565b34801561072e57600080fd5b506097546001600160a01b0316610462565b34801561074c57600080fd5b506103f361075b366004613bf3565b612d9c565b34801561076c57600080fd5b5061029761077b366004613e9a565b61010160209081526000928352604080842090915290825290205481565b3480156107a557600080fd5b5060fb54610462906001600160a01b031681565b3480156107c557600080fd5b506103b16107d4366004613e9a565b612dcd565b3480156107e557600080fd5b506103b16107f4366004613ffe565b612e70565b34801561080557600080fd5b5060fd54610297565b34801561081a57600080fd5b50610297610829366004613ebe565b61010060209081526000938452604080852082529284528284209052825290205481565b34801561085957600080fd5b506102ca610868366004613a91565b612fdc565b34801561087957600080fd5b506103f3613176565b34801561088e57600080fd5b5061029761089d366004613aad565b61010760209081526000928352604080842090915290825290205481565b3480156108c757600080fd5b506102976108d6366004613b72565b6000908152610101602090815260408083206001600160a01b03949094168352929052205490565b34801561090a57600080fd5b50610297610919366004613fad565b6131bb565b34801561092a57600080fd5b506103b1610939366004613a91565b613217565b34801561094a57600080fd5b50610297610959366004613aad565b6001600160a01b0391821660009081526101076020908152604080832093909416825291909152205490565b34801561099157600080fd5b506102976109a0366004613b72565b600090815260ff602090815260408083206001600160a01b03949094168352929052205490565b61010260205281600052604060002081815481106109e457600080fd5b90600052602060002001600091509150505481565b6060600060fb60009054906101000a90046001600160a01b03166001600160a01b031663bb6515e46040518163ffffffff1660e01b815260040160006040518083038186803b158015610a4b57600080fd5b505afa158015610a5f573d6000803e3d6000fd5b505050506040513d6000823e601f3d908101601f19168201604052610a879190810190613c69565b9050600081516001600160401b03811115610ab257634e487b7160e01b600052604160045260246000fd5b604051908082528060200260200182016040528015610aeb57816020015b610ad86137cb565b815260200190600190039081610ad05790505b50905060005b8251811015610bf15760fe6000848381518110610b1e57634e487b7160e01b600052603260045260246000fd5b60209081029190910181015151825281810192909252604090810160009081206001600160a01b038981168352908452828220835160e081018552815483168152600182015490921694820194909452600284015492810192909252600383015460608301526004830154608083015260059092015480830b830b90920b60a082015261010090910460ff16151560c08201528251839083908110610bd357634e487b7160e01b600052603260045260246000fd5b60200260200101819052508080610be99061462f565b915050610af1565b509392505050565b610c0161328d565b600061010582604051610c14919061407f565b9081526040805160209281900383019020546001600160a01b0316600081815261010690935291205490915060ff16610c8b5760405162461bcd60e51b8152602060048201526014602482015273151bdad95b88191bd95cc81b9bdd08195e1a5cdd60621b60448201526064015b60405180910390fd5b6001600160a01b038116600090815261010660205260408120805460ff191690555b60fd54811015610e005782604051602001610cc8919061407f565b6040516020818303038152906040528051906020012060fd8281548110610cff57634e487b7160e01b600052603260045260246000fd5b90600052602060002001604051602001610d19919061409b565b604051602081830303815290604052805190602001201415610dee5760fd8054610d45906001906145b1565b81548110610d6357634e487b7160e01b600052603260045260246000fd5b9060005260206000200160fd8281548110610d8e57634e487b7160e01b600052603260045260246000fd5b90600052602060002001908054610da4906145f4565b610daf929190613807565b5060fd805480610dcf57634e487b7160e01b600052603160045260246000fd5b600190038181906000526020600020016000610deb9190613892565b90555b610df981600161455a565b9050610cad565b506040516001600160a01b038216907f4c910b69fe65a61f7531b9c5042b2329ca7179c77290aa7e2eb3afa3c8511fd390600090a25050565b60008181526101036020526040812054606091816001600160401b03811115610e7257634e487b7160e01b600052604160045260246000fd5b604051908082528060200260200182016040528015610eab57816020015b610e986137cb565b815260200190600190039081610e905790505b50905060005b82811015610bf157600085815260fe602090815260408083206101039092528220805491929184908110610ef557634e487b7160e01b600052603260045260246000fd5b60009182526020808320909101546001600160a01b0390811684528382019490945260409283018220835160e081018552815486168152600182015490951691850191909152600281015492840192909252600382015460608401526004820154608084015260059091015480820b820b90910b60a083015260ff61010090910416151560c08201528251839083908110610fa057634e487b7160e01b600052603260045260246000fd5b60200260200101819052508080610fb69061462f565b915050610eb1565b60fb546040516333290e4f60e01b81526060916001600160a01b0316906333290e4f90610fef90859060040161417c565b60006040518083038186803b15801561100757600080fd5b505afa15801561101b573d6000803e3d6000fd5b505050506040513d6000823e601f3d908101601f191682016040526110439190810190613c69565b92915050565b306001600160a01b037f00000000000000000000000000000000000000000000000000000000000000001614156110925760405162461bcd60e51b8152600401610c8290614389565b7f00000000000000000000000000000000000000000000000000000000000000006001600160a01b03166110db60008051602061469b833981519152546001600160a01b031690565b6001600160a01b0316146111015760405162461bcd60e51b8152600401610c82906143d5565b61110a816132e7565b60408051600080825260208201909252611126918391906132ef565b50565b6060600082516001600160401b0381111561115457634e487b7160e01b600052604160045260246000fd5b60405190808252806020026020018201604052801561117d578160200160208202803683370190505b5060fb546040516394fd2e5b60e01b81529192506000916001600160a01b03909116906394fd2e5b906111b490879060040161417c565b60006040518083038186803b1580156111cc57600080fd5b505afa1580156111e0573d6000803e3d6000fd5b505050506040513d6000823e601f3d908101601f191682016040526112089190810190613c69565b905060005b845181101561154657600182828151811061123857634e487b7160e01b600052603260045260246000fd5b602002602001015160c00151600181111561126357634e487b7160e01b600052602160045260246000fd5b146112c85760405162461bcd60e51b815260206004820152602f60248201527f4d6574616265744d61736b506f6f6c3a204576656e7420686173206e6f74206260448201526e19595b88191958da591959081e595d608a1b6064820152608401610c82565b60fb5485516001600160a01b039091169063118e58bd908790849081106112ff57634e487b7160e01b600052603260045260246000fd5b60200260200101516040518263ffffffff1660e01b815260040161132591815260200190565b60206040518083038186803b15801561133d57600080fd5b505afa158015611351573d6000803e3d6000fd5b505050506040513d601f19601f820116820180604052508101906113759190613e4a565b6113cf5760405162461bcd60e51b815260206004820152602560248201527f4d6574616265744d61736b506f6f6c3a204576656e7420646f6573206e6f7420604482015264195e1a5cdd60da1b6064820152608401610c82565b600060fe60008784815181106113f557634e487b7160e01b600052603260045260246000fd5b602090810291909101810151825281810192909252604090810160009081206001600160a01b038b81168352908452828220835160e081018552815483168152600182015490921694820194909452600284015492810192909252600383015460608301526004830154608083015260059092015480830b830b90920b60a082015261010090910460ff16151560c082015283519091508390839081106114ac57634e487b7160e01b600052603260045260246000fd5b60200260200101516060015160000b8160a0015160000b14156115005760018483815181106114eb57634e487b7160e01b600052603260045260246000fd5b91151560209283029190910190910152611533565b600084838151811061152257634e487b7160e01b600052603260045260246000fd5b911515602092830291909101909101525b5061153f81600161455a565b905061120d565b5090949350505050565b610103602052816000526040600020818154811061156d57600080fd5b6000918252602090912001546001600160a01b03169150829050565b611591613469565b604080516001808252818301909252600091602080830190803683370190505090506000610105856040516115c6919061407f565b9081526040805160209281900383019020546001600160a01b031660008181526101049093529082205490925061160b906064906116059088906134c3565b906134cf565b9050600061161986836134db565b9050878460008151811061163d57634e487b7160e01b600052603260045260246000fd5b602090810291909101015260fb546040516394fd2e5b60e01b81526000916001600160a01b0316906394fd2e5b9061167990889060040161417c565b60006040518083038186803b15801561169157600080fd5b505afa1580156116a5573d6000803e3d6000fd5b505050506040513d6000823e601f3d908101601f191682016040526116cd9190810190613c69565b6000815181106116ed57634e487b7160e01b600052603260045260246000fd5b60200260200101519050428160800151101561171b5760405162461bcd60e51b8152600401610c8290614421565b33600081815261010260209081526040808320805460018181018355918552838520018e90558d845261010383528184208054918201815584528284200180546001600160a01b0319169094179093558b825260ff81528282206001600160a01b03881683529052908120805489929061179690849061455a565b90915550506000898152610100602090815260408083206001600160a01b0388168452825280832089840b840b8452909152812080548992906117da90849061455a565b90915550506000898152610101602090815260408083206001600160a01b0388168452909152812080546001929061181390849061455a565b9250508190555060006040518060e00160405280336001600160a01b03168152602001866001600160a01b031681526020018b81526020018481526020014281526020018860000b81526020016000151581525090508060fe60008c81526020019081526020016000206000336001600160a01b03166001600160a01b0316815260200190815260200160002060008201518160000160006101000a8154816001600160a01b0302191690836001600160a01b0316021790555060208201518160010160006101000a8154816001600160a01b0302191690836001600160a01b0316021790555060408201518160020155606082015181600301556080820151816004015560a08201518160050160006101000a81548160ff021916908360000b60ff16021790555060c08201518160050160016101000a81548160ff0219169083151502179055509050506000856001600160a01b03166323b872dd338560a001518c6040518463ffffffff1660e01b81526004016119b4939291906001600160a01b039384168152919092166020820152604081019190915260600190565b602060405180830381600087803b1580156119ce57600080fd5b505af11580156119e2573d6000803e3d6000fd5b505050506040513d601f19601f82011682018060405250810190611a069190613e4a565b905080611a1257600080fd5b6040516311d3d05360e21b815261010590600401908152604051908190036020019020546001600160a01b038781169116141580611a825750604051661351551050915560ca1b815261010590600701908152604051908190036020019020546001600160a01b03878116911614155b15611afa5760a083015160fc546040516301e3366760e01b81526001600160a01b0389811660048301529182166024820152604481018890529116906301e3366790606401600060405180830381600087803b158015611ae157600080fd5b505af1158015611af5573d6000803e3d6000fd5b505050505b6040805160008a900b81526020810186905233918d917f8b25b88f52cfa9737af5a016457e58c0c6232999d2cd00ac17a9d29e89b30ed5910160405180910390a350505050505050611b4c600160c955565b50505050565b60fb54604080516323fe10b760e11b815290516000926001600160a01b0316916347fc216e916004808301926020929190829003018186803b158015611b9757600080fd5b505afa158015611bab573d6000803e3d6000fd5b505050506040513d601f19601f82011682018060405250810190611bcf9190613e82565b905090565b600054610100900460ff1615808015611bf45750600054600160ff909116105b80611c0e5750303b158015611c0e575060005460ff166001145b611c715760405162461bcd60e51b815260206004820152602e60248201527f496e697469616c697a61626c653a20636f6e747261637420697320616c72656160448201526d191e481a5b9a5d1a585b1a5e995960921b6064820152608401610c82565b6000805460ff191660011790558015611c94576000805461ff0019166101001790555b611c9c6134e7565b60fb80546001600160a01b038086166001600160a01b03199283161790925560fc8054928516929091169190911790558015611d12576000805461ff0019169055604051600181527f7f26b83ff96e1f2b6a682f133852f6798a09c465da95921460cefb38474024989060200160405180910390a15b505050565b60606000826001600160401b03811115611d4157634e487b7160e01b600052604160045260246000fd5b604051908082528060200260200182016040528015611d7457816020015b6060815260200190600190039081611d5f5790505b509050835b83811015610bf15760fd8181548110611da257634e487b7160e01b600052603260045260246000fd5b906000526020600020018054611db7906145f4565b80601f0160208091040260200160405190810160405280929190818152602001828054611de3906145f4565b8015611e305780601f10611e0557610100808354040283529160200191611e30565b820191906000526020600020905b815481529060010190602001808311611e1357829003601f168201915b5050505050828281518110611e5557634e487b7160e01b600052603260045260246000fd5b6020908102919091010152611e6b81600161455a565b9050611d79565b6000818152610100602090815260408083206001600160a01b0386168452825280832086840b840b84529091529020545b9392505050565b611eb261328d565b806001600160a01b038116611f095760405162461bcd60e51b815260206004820152601860248201527f416464726573732030206973206e6f7420616c6c6f77656400000000000000006044820152606401610c82565b60fb80546001600160a01b0319166001600160a01b0384169081179091556040519081527fdd82bdfc28fcc826c53263dc2a2b6083e27e92699ebfee617227e08e21c202f0906020015b60405180910390a15050565b306001600160a01b037f0000000000000000000000000000000000000000000000000000000000000000161415611fa85760405162461bcd60e51b8152600401610c8290614389565b7f00000000000000000000000000000000000000000000000000000000000000006001600160a01b0316611ff160008051602061469b833981519152546001600160a01b031690565b6001600160a01b0316146120175760405162461bcd60e51b8152600401610c82906143d5565b612020826132e7565b61202c828260016132ef565b5050565b60fd818154811061204057600080fd5b90600052602060002001600091509050805461205b906145f4565b80601f0160208091040260200160405190810160405280929190818152602001828054612087906145f4565b80156120d45780601f106120a9576101008083540402835291602001916120d4565b820191906000526020600020905b8154815290600101906020018083116120b757829003601f168201915b505050505081565b6000306001600160a01b037f0000000000000000000000000000000000000000000000000000000000000000161461217c5760405162461bcd60e51b815260206004820152603860248201527f555550535570677261646561626c653a206d757374206e6f742062652063616c60448201527f6c6564207468726f7567682064656c656761746563616c6c00000000000000006064820152608401610c82565b5060008051602061469b83398151915290565b600081815260fe602090815260408083206001600160a01b038781168552908352818420825160e081018452815483168152600182015490921693820193909352600283015491810191909152600382015460608201526004820154608082015260059091015480830b830b830b60a0830181905261010090910460ff16151560c083015282906122219086866131bb565b905083826040015114156122485780826060015161223f9190614592565b92505050611ea3565b50600095945050505050565b61225c613469565b8134101561226957600080fd5b60008080526101046020527f0c81ce4857d5b94b8c75139d9e9e2911ece8cd067eddba6000e40a08e09d5643546122a8906064906116059086906134c3565b905060006122b684836134db565b604080516001808252818301909252919250600091906020808301908036833701905050905085816000815181106122fe57634e487b7160e01b600052603260045260246000fd5b602090810291909101015260fb546040516394fd2e5b60e01b81526000916001600160a01b0316906394fd2e5b9061233a90859060040161417c565b60006040518083038186803b15801561235257600080fd5b505afa158015612366573d6000803e3d6000fd5b505050506040513d6000823e601f3d908101601f1916820160405261238e9190810190613c69565b6000815181106123ae57634e487b7160e01b600052603260045260246000fd5b6020026020010151905042816080015110156123dc5760405162461bcd60e51b8152600401610c8290614421565b33600081815261010260209081526040808320805460018181018355918552838520018c90558b845261010383528184208054918201815584528284200180546001600160a01b03191690941790935589825260ff81528282208280529052908120805488929061244e90849061455a565b9091555050600087815261010060209081526040808320838052825280832088840b840b84529091528120805488929061248990849061455a565b909155505060008781526101016020908152604080832083805290915281208054600192906124b990849061455a565b9250508190555060006040518060e00160405280336001600160a01b0316815260200160006001600160a01b031681526020018981526020018581526020014281526020018760000b81526020016000151581525090508060fe60008a81526020019081526020016000206000336001600160a01b03166001600160a01b0316815260200190815260200160002060008201518160000160006101000a8154816001600160a01b0302191690836001600160a01b0316021790555060208201518160010160006101000a8154816001600160a01b0302191690836001600160a01b0316021790555060408201518160020155606082015181600301556080820151816004015560a08201518160050160006101000a81548160ff021916908360000b60ff16021790555060c08201518160050160016101000a81548160ff02191690831515021790555090505060fc60009054906101000a90046001600160a01b03166001600160a01b03166108fc869081150290604051600060405180830381858888f19350505050158015612654573d6000803e3d6000fd5b508160a001516001600160a01b03166108fc859081150290604051600060405180830381858888f19350505050158015612692573d6000803e3d6000fd5b5060408051600088900b81526020810186905233918a917f8b25b88f52cfa9737af5a016457e58c0c6232999d2cd00ac17a9d29e89b30ed5910160405180910390a35050505050611d12600160c955565b6126eb61328d565b6126f56000613516565b565b6126ff613469565b600082516001600160401b0381111561272857634e487b7160e01b600052604160045260246000fd5b604051908082528060200260200182016040528015612751578160200160208202803683370190505b509050600083516001600160401b0381111561277d57634e487b7160e01b600052604160045260246000fd5b6040519080825280602002602001820160405280156127a6578160200160208202803683370190505b5060fb546040516394fd2e5b60e01b81529192506000916001600160a01b03909116906394fd2e5b906127dd90889060040161417c565b60006040518083038186803b1580156127f557600080fd5b505afa158015612809573d6000803e3d6000fd5b505050506040513d6000823e601f3d908101601f191682016040526128319190810190613c69565b905061283d3386611129565b915060005b8551811015612d0d5785818151811061286b57634e487b7160e01b600052603260045260246000fd5b602002602001015184828151811061289357634e487b7160e01b600052603260045260246000fd5b6020026020010181815250508281815181106128bf57634e487b7160e01b600052603260045260246000fd5b60200260200101516129295760405162461bcd60e51b815260206004820152602d60248201527f4d6574616265744d61736b506f6f6c3a204f6e6c792077696e6e65722063616e60448201526c0818db185a5b481c995dd85c99609a1b6064820152608401610c82565b60fe600087838151811061294d57634e487b7160e01b600052603260045260246000fd5b60209081029190910181015182528181019290925260409081016000908120338252909252902060050154610100900460ff16156129e65760405162461bcd60e51b815260206004820152603060248201527f4d6574616265744d61736b506f6f6c3a20557365722068617320616c7265616460448201526f1e4818db185a5b5959081c995dd85c9960821b6064820152608401610c82565b600060fe6000888481518110612a0c57634e487b7160e01b600052603260045260246000fd5b6020908102919091018101518252818101929092526040908101600090812033808352935290812060058101805461ff00191661010017905589519093509091612a7f9189908b9087908110612a7257634e487b7160e01b600052603260045260246000fd5b602002602001015161218f565b336000908152610107602090815260408083206001600160a01b038c168452909152812080549293508392909190612ab890849061455a565b90915550506001600160a01b038716612bf457838381518110612aeb57634e487b7160e01b600052603260045260246000fd5b602002602001015160a001516001600160a01b0316632e1a7d4d826040518263ffffffff1660e01b8152600401612b2491815260200190565b600060405180830381600087803b158015612b3e57600080fd5b505af1158015612b52573d6000803e3d6000fd5b50506040516000925033915083908381818185875af1925050503d8060008114612b98576040519150601f19603f3d011682016040523d82523d6000602084013e612b9d565b606091505b5050905080612bee5760405162461bcd60e51b815260206004820152601d60248201527f636c61696d206f6620626e622077617320756e7375636365737366756c0000006044820152606401610c82565b50612c8d565b838381518110612c1457634e487b7160e01b600052603260045260246000fd5b602090810291909101015160a001516040516301e3366760e01b81526001600160a01b03898116600483015233602483015260448201849052909116906301e3366790606401600060405180830381600087803b158015612c7457600080fd5b505af1158015612c88573d6000803e3d6000fd5b505050505b878381518110612cad57634e487b7160e01b600052603260045260246000fd5b6020026020010151336001600160a01b03167f33e1e4350f7b57099d5489c172fc55e9e32d4d3906a6e36710fae5ed9f5eef0f83604051612cf091815260200190565b60405180910390a350508080612d059061462f565b915050612842565b5050505061202c600160c955565b60fb5460408051630b4184e760e41b815290516060926001600160a01b03169163b4184e70916004808301926000929190829003018186803b158015612d6057600080fd5b505afa158015612d74573d6000803e3d6000fd5b505050506040513d6000823e601f3d908101601f19168201604052611bcf9190810190613c69565b60fb546040516394fd2e5b60e01b81526060916001600160a01b0316906394fd2e5b90610fef90859060040161417c565b612dd561328d565b81612e225760405162461bcd60e51b815260206004820181905260248201527f4d6574616265744d61736b506f6f6c3a206665652063616e6e6f7420626520306044820152606401610c82565b6001600160a01b0381166000908152610104602052604090819020839055517ff61e39fefd2c73a068ca37aab6526a88f6561b409bb2898b189f15e1adae6f0790611f539084815260200190565b612e7861328d565b6001600160a01b0381166000908152610106602052604090205460ff1615612ed85760405162461bcd60e51b8152602060048201526013602482015272151bdad95b88185b1c9958591e481859191959606a1b6044820152606401610c82565b6001600160a01b0381166000908152610106602052604090819020805460ff1916600117905551819061010590612f1090859061407f565b9081526040516020918190038201902080546001600160a01b0319166001600160a01b03939093169290921790915560fd80546001810182556000919091528351612f82927f9346ac6dd7de6b96975fec380d4d994c4c12e6a8897544f22915316cc6cca280909201918501906138cc565b506001600160a01b038116600081815261010460205260409081902060019055517f6d97a31531bdb3c43d920bc996ec8b9fd7733f5f55a81cd74700f88631fc603290612fd0908590614376565b60405180910390a25050565b6001600160a01b03811660009081526101026020526040812054606091816001600160401b0381111561301f57634e487b7160e01b600052604160045260246000fd5b60405190808252806020026020018201604052801561305857816020015b6130456137cb565b81526020019060019003908161303d5790505b50905060005b82811015610bf1576001600160a01b038516600090815261010260205260408120805460fe929190849081106130a457634e487b7160e01b600052603260045260246000fd5b600091825260208083209190910154835282810193909352604091820181206001600160a01b038981168352908452828220835160e081018552815483168152600182015490921694820194909452600284015492810192909252600383015460608301526004830154608083015260059092015480830b830b90920b60a082015261010090910460ff16151560c0820152825183908390811061315857634e487b7160e01b600052603260045260246000fd5b6020026020010181905250808061316e9061462f565b91505061305e565b60fb5460408051632ed9457960e21b815290516060926001600160a01b03169163bb6515e4916004808301926000929190829003018186803b158015612d6057600080fd5b6000806131c9858585611e72565b600084815260ff602090815260408083206001600160a01b038916845290915290205490915081158015906131fd57508015155b1561320c5761223f8282614572565b600092505050611ea3565b61321f61328d565b6001600160a01b0381166132845760405162461bcd60e51b815260206004820152602660248201527f4f776e61626c653a206e6577206f776e657220697320746865207a65726f206160448201526564647265737360d01b6064820152608401610c82565b61112681613516565b6097546001600160a01b031633146126f55760405162461bcd60e51b815260206004820181905260248201527f4f776e61626c653a2063616c6c6572206973206e6f7420746865206f776e65726044820152606401610c82565b61112661328d565b7f4910fdfa16fed3260ed0e7147f7cc6da11a60208b5b9406d12a635614ffd91435460ff161561332257611d1283613568565b826001600160a01b03166352d1902d6040518163ffffffff1660e01b815260040160206040518083038186803b15801561335b57600080fd5b505afa92505050801561338b575060408051601f3d908101601f1916820190925261338891810190613e82565b60015b6133ee5760405162461bcd60e51b815260206004820152602e60248201527f45524331393637557067726164653a206e657720696d706c656d656e7461746960448201526d6f6e206973206e6f74205555505360901b6064820152608401610c82565b60008051602061469b833981519152811461345d5760405162461bcd60e51b815260206004820152602960248201527f45524331393637557067726164653a20756e737570706f727465642070726f786044820152681a58589b195555525160ba1b6064820152608401610c82565b50611d12838383613604565b600260c95414156134bc5760405162461bcd60e51b815260206004820152601f60248201527f5265656e7472616e637947756172643a207265656e7472616e742063616c6c006044820152606401610c82565b600260c955565b6000611ea38284614592565b6000611ea38284614572565b6000611ea382846145b1565b600054610100900460ff1661350e5760405162461bcd60e51b8152600401610c829061446d565b6126f5613629565b609780546001600160a01b038381166001600160a01b0319831681179093556040519116919082907f8be0079c531659141344cd1fd0a4f28419497f9722a3daafe3b4186f6b6457e090600090a35050565b6001600160a01b0381163b6135d55760405162461bcd60e51b815260206004820152602d60248201527f455243313936373a206e657720696d706c656d656e746174696f6e206973206e60448201526c1bdd08184818dbdb9d1c9858dd609a1b6064820152608401610c82565b60008051602061469b83398151915280546001600160a01b0319166001600160a01b0392909216919091179055565b61360d83613659565b60008251118061361a5750805b15611d1257611b4c8383613699565b600054610100900460ff166136505760405162461bcd60e51b8152600401610c829061446d565b6126f533613516565b61366281613568565b6040516001600160a01b038216907fbc7cd75a20ee27fd9adebab32041f755214dbc6bffa90cc0225b39da2e5c2d3b90600090a250565b60606001600160a01b0383163b6137015760405162461bcd60e51b815260206004820152602660248201527f416464726573733a2064656c65676174652063616c6c20746f206e6f6e2d636f6044820152651b9d1c9858dd60d21b6064820152608401610c82565b600080846001600160a01b03168460405161371c919061407f565b600060405180830381855af49150503d8060008114613757576040519150601f19603f3d011682016040523d82523d6000602084013e61375c565b606091505b509150915061378482826040518060600160405280602781526020016146bb6027913961378d565b95945050505050565b6060831561379c575081611ea3565b611ea383838151156137b15781518083602001fd5b8060405162461bcd60e51b8152600401610c829190614376565b6040805160e081018252600080825260208201819052918101829052606081018290526080810182905260a0810182905260c081019190915290565b828054613813906145f4565b90600052602060002090601f0160209004810192826138355760008555613882565b82601f106138465780548555613882565b8280016001018555821561388257600052602060002091601f016020900482015b82811115613882578254825591600101919060010190613867565b5061388e929150613940565b5090565b50805461389e906145f4565b6000825580601f106138ae575050565b601f0160209004906000526020600020908101906111269190613940565b8280546138d8906145f4565b90600052602060002090601f0160209004810192826138fa5760008555613882565b82601f1061391357805160ff1916838001178555613882565b82800160010185558215613882579182015b82811115613882578251825591602001919060010190613925565b5b8082111561388e5760008155600101613941565b600061396861396384614533565b6144e0565b905082815283838301111561397c57600080fd5b828260208301376000602084830101529392505050565b805161399e81614676565b919050565b600082601f8301126139b3578081fd5b813560206139c361396383614510565b80838252828201915082860187848660051b89010111156139e2578586fd5b855b85811015613a00578135845292840192908401906001016139e4565b5090979650505050505050565b80516002811061399e57600080fd5b805161399e8161468b565b600082601f830112613a37578081fd5b611ea383833560208501613955565b600082601f830112613a56578081fd5b8151613a6461396382614533565b818152846020838601011115613a78578283fd5b613a898260208301602087016145c8565b949350505050565b600060208284031215613aa2578081fd5b8135611ea381614676565b60008060408385031215613abf578081fd5b8235613aca81614676565b91506020830135613ada81614676565b809150509250929050565b600080600060608486031215613af9578081fd5b8335613b0481614676565b92506020840135613b1481614676565b929592945050506040919091013590565b60008060408385031215613b37578182fd5b8235613b4281614676565b915060208301356001600160401b03811115613b5c578182fd5b613b68858286016139a3565b9150509250929050565b60008060408385031215613b84578182fd5b8235613b8f81614676565b946020939093013593505050565b60008060408385031215613baf578182fd5b8235613bba81614676565b915060208301356001600160401b03811115613bd4578182fd5b8301601f81018513613be4578182fd5b613b6885823560208401613955565b600060208284031215613c04578081fd5b81356001600160401b03811115613c19578182fd5b613a89848285016139a3565b60008060408385031215613c37578182fd5b82356001600160401b03811115613c4c578283fd5b613c58858286016139a3565b9250506020830135613ada81614676565b60006020808385031215613c7b578182fd5b82516001600160401b0380821115613c91578384fd5b818501915085601f830112613ca4578384fd5b8151613cb261396382614510565b80828252858201915085850189878560051b8801011115613cd1578788fd5b875b84811015613da957815186811115613ce957898afd5b870160e0818d03601f19011215613cfe57898afd5b613d066144b8565b898201518152604082015188811115613d1d578b8cfd5b613d2b8e8c83860101613a46565b8b8301525060608083015189811115613d42578c8dfd5b613d508f8d83870101613a46565b6040840152506080613d63818501613a1c565b8284015260a0915081840151818401525060c0613d81818501613993565b82840152613d9160e08501613a0d565b90830152508552509287019290870190600101613cd3565b50909998505050505050505050565b60006020808385031215613dca578182fd5b82356001600160401b03811115613ddf578283fd5b8301601f81018513613def578283fd5b8035613dfd61396382614510565b80828252848201915084840188868560051b8701011115613e1c578687fd5b8694505b83851015613e3e578035835260019490940193918501918501613e20565b50979650505050505050565b600060208284031215613e5b578081fd5b81518015158114611ea3578182fd5b600060208284031215613e7b578081fd5b5035919050565b600060208284031215613e93578081fd5b5051919050565b60008060408385031215613eac578182fd5b823591506020830135613ada81614676565b600080600060608486031215613ed2578081fd5b833592506020840135613ee481614676565b91506040840135613ef48161468b565b809150509250925092565b60008060008060808587031215613f14578182fd5b8435935060208501356001600160401b03811115613f30578283fd5b613f3c87828801613a27565b935050604085013591506060850135613f548161468b565b939692955090935050565b60008060408385031215613f71578182fd5b50508035926020909101359150565b600080600060608486031215613f94578081fd5b83359250602084013591506040840135613ef48161468b565b600080600060608486031215613fc1578081fd5b8335613b048161468b565b600060208284031215613fdd578081fd5b81356001600160401b03811115613ff2578182fd5b613a8984828501613a27565b60008060408385031215614010578182fd5b82356001600160401b03811115614025578283fd5b613c5885828601613a27565b6002811061404f57634e487b7160e01b600052602160045260246000fd5b9052565b6000815180845261406b8160208601602086016145c8565b601f01601f19169290920160200192915050565b600082516140918184602087016145c8565b9190910192915050565b600080835482600182811c9150808316806140b757607f831692505b60208084108214156140d757634e487b7160e01b87526022600452602487fd5b8180156140eb57600181146140fc57614128565b60ff19861689528489019650614128565b60008a815260209020885b868110156141205781548b820152908501908301614107565b505084890196505b509498975050505050505050565b6020808252825182820181905260009190848201906040850190845b81811015614170578351151583529284019291840191600101614152565b50909695505050505050565b6020808252825182820181905260009190848201906040850190845b8181101561417057835183529284019291840191600101614198565b6000602080830181845280855180835260408601915060408160051b8701019250838701855b8281101561420857603f198886030184526141f6858351614053565b945092850192908501906001016141da565b5092979650505050505050565b602080825282518282018190526000919060409081850190868401855b8281101561429a57815180516001600160a01b0390811686528782015116878601528581015186860152606080820151908601526080808201519086015260a080820151890b9086015260c09081015115159085015260e09093019290850190600101614232565b5091979650505050505050565b60006020808301818452808551808352604092508286019150828160051b870101848801865b8381101561436857603f19898403018552815160e08151855288820151818a8701526142fb82870182614053565b91505087820151858203898701526143138282614053565b6060848101518d0b908801526080808501519088015260a0808501516001600160a01b03169088015260c09384015193909250905061435481870184614031565b5095880195935050908601906001016142cd565b509098975050505050505050565b602081526000611ea36020830184614053565b6020808252602c908201527f46756e6374696f6e206d7573742062652063616c6c6564207468726f7567682060408201526b19195b1959d85d1958d85b1b60a21b606082015260800190565b6020808252602c908201527f46756e6374696f6e206d7573742062652063616c6c6564207468726f7567682060408201526b6163746976652070726f787960a01b606082015260800190565b6020808252602c908201527f4d6574616265744d61736b506f6f6c3a204576656e742068617320737461727460408201526b32b21037b91032b73232b21760a11b606082015260800190565b6020808252602b908201527f496e697469616c697a61626c653a20636f6e7472616374206973206e6f74206960408201526a6e697469616c697a696e6760a81b606082015260800190565b60405160e081016001600160401b03811182821017156144da576144da614660565b60405290565b604051601f8201601f191681016001600160401b038111828210171561450857614508614660565b604052919050565b60006001600160401b0382111561452957614529614660565b5060051b60200190565b60006001600160401b0382111561454c5761454c614660565b50601f01601f191660200190565b6000821982111561456d5761456d61464a565b500190565b60008261458d57634e487b7160e01b81526012600452602481fd5b500490565b60008160001904831182151516156145ac576145ac61464a565b500290565b6000828210156145c3576145c361464a565b500390565b60005b838110156145e35781810151838201526020016145cb565b83811115611b4c5750506000910152565b600181811c9082168061460857607f821691505b6020821081141561462957634e487b7160e01b600052602260045260246000fd5b50919050565b60006000198214156146435761464361464a565b5060010190565b634e487b7160e01b600052601160045260246000fd5b634e487b7160e01b600052604160045260246000fd5b6001600160a01b038116811461112657600080fd5b8060000b811461112657600080fdfe360894a13ba1a3210667c828492db98dca3e2076cc3735a920a3ca505d382bbc416464726573733a206c6f772d6c6576656c2064656c65676174652063616c6c206661696c6564a2646970667358221220299dcd7ea9674ada2f97bbca1238b8c22ad9acb26c2f882f515c06c09f7a559b64736f6c63430008040033",
  "linkReferences": {},
  "deployedLinkReferences": {}
}